:1000000014C01BC01AC019C018C017C016C015C034
:1000100014C013C012C011C010C00FC00EC00DC05C
:100020000CC00BC00AC009C008C011241FBECFE518
:10003000D2E0DEBFCDBF02D029C0E2CFDF93CF93A5
:1000400000D000D0CDB7DEB7EAE3F0E08081EAE38C
:10005000F0E08FEF8083ABE3B0E0EBE3F0E0808192
:100060008C93ABE3B0E0EBE3F0E080818A6A8C93A1
:10007000EBE3F0E08081EBE3F0E08FEF80830F9023
:100080000F900F900F90CF91DF910895F894FFCFCC
:00000001FF
